:020000040000FA
:100000000C9403020C942B020C942B020C94DA1E19
:100010000C94DA1E0C94DA1E0C94521F0C942B02D2
:100020000C942B020C942B020C942B020C942B029C
:100030000C942B020C942B020C942B020C942B028C
:100040000C94901E0C942B020C945E1E0C94381E83
:100050000C942B020C942B020C942B020C942B026C
:100060000C942B020C942B025A4441005654470026
:10007000524D4300475356004753540047534100E5
:10008000474C4C00474741007B5457537D20007B31
:100090004D494E7D20526573657474696E672047C3
:1000A0005053007B4D494E7D43616E206E6F74202E
:1000B0007374617274205753505220426561636FAC
:1000C0006E007B4D494E7D43616C6C205369676EB9
:1000D000206E6F7420736574007B4D494E7D5472A1
:1000E000616E6D697373696F6E206973206E6F74D2
:1000F00020656E61626C6564206F6E20616E792090
:1001000062616E64007B4D50537D2030007B4D500A
:10011000537D20007B5446517D20007B4C50497D0F
:1001200020007B4D56437D20007B5443437D007B64
:10013000544F4E7D2046007B544F4E7D2054007B13
:100140005446517D20007B474C437D2046007B4731
:100150004C437D2054003A003A007B47544D7D20AB
:10016000007B474C347D20007B544F4E7D20540053
:100170007B544F4E7D2046007B544F4E7D204600E1
:100180007B43434D7D20007B4753497D2000000089
:100190000000240027002A000000000800020100DF
:1001A0000003040700000000000000004A4A31423A
:1001B0004458206D6F6420004265746120007B4DBF
:1001C000494E7D204669726D776172652076657251
:1001D00073696F6E20007B4D494E7D205A616368C4
:1001E00054656B2057535052204465736B746F7085
:1001F000207472616E736D6974746572007B4D4911
:100200004E7D204E6F20757365722064617461208D
:1002100077617320666F756E642C207365747469E2
:100220006E672064656661756C742076616C7565B7
:1002300073007B4D494E7D20596F75206E65656456
:1002400020746F2072756E20666163746F727920FE
:10025000736574757020746F20636F6D706C657456
:10026000652074686520636F6E6669677572617476
:10027000696F6E2C206775657373696E67206F6E8A
:100280002063616C6962726174696F6E2076616C63
:1002900075657320666F72206E6F77007B4D494ED7
:1002A0007D204E6F20666163746F72792064617483
:1002B0006120666F756E642021007B4D494E7D2064
:1002C000466163746F727920646174612073617632
:1002D0006564007B4652467D20007B464C507D2065
:1002E0004420007B464C507D204320007B464C50F0
:1002F0007D204220007B464C507D204120007B46E3
:100300004C507D2041203035007B464C507D2041B3
:10031000203039007B464C507D2041203038007B16
:100320004653527D20007B4653567D20007B464835
:10033000527D20007B4648567D20007B46504E7DF6
:1003400020007B4447467D20007B4450447D2000B4
:100350007B444E4D7D20007B444C347D20007B440B
:1003600043537D20007B4F50577D20007B4F4C43F3
:100370007D20007B4F42447D20007B4F534D7D20EC
:10038000007B4F54507D20007B4D494E7D20436FB4
:100390006E66696775726174696F6E2073617665E8
:1003A00064007B4D494E7D20526573657474696E9F
:1003B000672047505300840080007C007800740060
:1003C00070006C0068000000000023002600290077
:1003D00000000000250028002B000404040404048D
:1003E00004040202020202020303030303030102E4
:1003F00004081020408001020408102001020408B3
:1004000010205C1F9E2811241FBECFEFD8E0DEBF56
:10041000CDBF12E0A0E0B1E0E8EBF5E602C0059048
:100420000D92A035B107D9F725E0A0E5B2E001C0F3
:100430001D92AF39B207E1F712E0C2E0D2E004C08A
:100440002197FE010E94DB2CC130D107C9F70E9421
:100450003D200C94CF320C940000FC018091750576
:1004600081111AC011821082138212828091770545
:100470008260809377051092760591E06D3209F0E5
:1004800090E08091770590FB80F9809377056D323D
:1004900009F06EC080E008956C3299F58091760580
:1004A000811103C081E08093760582819381892B3D
:1004B00099F05AE08091760591E0980F9093760537
:1004C000481750F022813381529FC001539F900DF5
:1004D000112493838283EECF90917705892F8170C9
:1004E00090FF44C0228133813195219531093383B6
:1004F00022832081318131952195310931832083F7
:1005000008956E3221F481E080937605C3CF809107
:100510007605811112C0208131814AE0429FC001DD
:10052000439F900D1124062E000C770B6053710928
:10053000680F791F71836083ADCF91E0980F90931E
:100540007605481708F4A6CF228133814AE0429FFE
:10055000C001439F900D1124062E000C770B6053B1
:100560007109680F791F7383628394CF81E00895C6
:100570006C3209F497CF6E3271F6C5CF813311F02A
:10058000813421F483E08093710508C0803321F029
:100590008E3411F0863541F4109271058091720508
:1005A0008160809372050895823311F0843411F4D0
:1005B00084E0E9CF833311F487E0E5CF843311F48D
:1005C00086E0E1CF853311F485E0DDCF863311F08D
:1005D000853449F781E0D7CFE0917505E930F0F433
:1005E000F0E0EB50FD4F0C94DB2CFE0210031503E2
:1005F0001D0322032A032F033703410310927005C2
:100600008C3261F0909177059260909377058053DA
:100610009AE0899F802D112480936B0581E00895D5
:1006200090916B059053890FF7CF80539AE0899F83
:10063000802D112480936A05F1CF90916A05905323
:10064000890FF8CF80539AE0899F802D11248093E1
:100650006905E4CF909169059053890FF8CF8C32EA
:10066000E9F680917205846080937205D7CF8C3251
:10067000C1F380539AE0899F802D112480937005E7
:10068000CDCF8C3271F3909170059053890F809388
:100690007005E7CFFC01809177058E7F8093770509
:1006A00080917505811106C06C3269F060536083DA
:1006B00081E008956C32E1F3808160539AE0899F74
:1006C000600D1124F4CF80E00895AF92BF92CF92D5
:1006D000DF92EF92FF920F931F93CF93DF936C0102
:1006E0007B018B01040F151FEB015E01AE18BF08E3
:1006F000C017D10759F06991D601ED91FC91019095
:10070000F081E02DC6010995892B79F7C501DF91AC
:10071000CF911F910F91FF90EF90DF90CF90BF90FE
:10072000AF900895FC01538D448D252F30E0842F28
:1007300090E0821B930B541710F0CF960895019709
:100740000895FC01918D828D981761F0A28DAE0FF6
:10075000BF2FB11D5D968C91928D9F5F9F73928F7D
:1007600090E008958FEF9FEF0895FC01918D828DA9
:10077000981731F0828DE80FF11D858D90E0089576
:100780008FEF9FEF0895FC01918D228D892F90E0CE
:10079000805C9F4F821B91098F739927089587E092
:1007A00094E00E94C30321E0892B09F420E0822F0A
:1007B000089580E090E0892B29F00E94CF038111F9
:1007C0000C9400000895FC01A48DA80FB92FB11D51
:1007D000A35ABF4F2C91848D90E001968F73992777
:1007E000848FA689B7892C93A089B1898C91837055
:1007F00080648C93938D848D981306C00288F3894E
:10080000E02D80818F7D80830895EF92FF920F937A
:100810001F93CF93DF93EC0181E0888F9B8D8C8DAC
:1008200098131AC0E889F989808185FF15C09FB7A0
:10083000F894EE89FF896083E889F9898081837063
:10084000806480839FBF81E090E0DF91CF911F9112
:100850000F91FF90EF900895F62E0B8D10E00F5F33
:100860001F4F0F731127E02E8C8D8E110CC00FB609
:1008700007FCFACFE889F989808185FFF5CFCE01A1
:100880000E94E303F1CFEB8DEC0FFD2FF11DE35A36
:10089000FF4FF0829FB7F8940B8FEA89FB89808124
:1008A0008062CFCF0F931F93CF93DF938C01D0E063
:1008B000C0E0F801EC0FFD1F6491662341F087E072
:1008C00094E00E940504892B11F02196F2CFCE010D
:1008D000DF91CF911F910F910895CF93DF93EC019A
:1008E000888D8823B9F0AA89BB89E889F9898C9118
:1008F00085FD03C0808186FD0DC00FB607FCF7CFD4
:100900008C9185FFF2CF808185FFEDCFCE010E94D3
:10091000E303E9CFDF91CF91089590E0FC01E85621
:10092000FE4F2491FC01E251FC4F3491FC01E65250
:10093000FC4FE491EE23C9F0222339F0233001F17A
:10094000A8F4213019F1223029F1F0E0EE0FFF1F59
:10095000E053FC4FA591B4918FB7F894EC916111DD
:1009600026C030953E233C938FBF08952730A9F0D1
:100970002830C9F0243049F7809180008F7D03C072
:10098000809180008F7780938000DFCF84B58F7750
:1009900084BDDBCF84B58F7DFBCF8091B0008F7796
:1009A0008093B000D2CF8091B0008F7DF9CF3E2BE5
:1009B000DACFCF93DF9390E0FC01E251FC4F24911A
:1009C00086529C4FFC0184918823D1F090E0880FDF
:1009D000991FFC01E257FE4FA591B491FC01E05331
:1009E000FC4FC591D49161110EC09FB7F8948C91C2
:1009F000E22FE0958E238C932881E223E8839FBF2A
:100A0000DF91CF9108958FB7F894EC91E22BEC939E
:100A10008FBFF6CF3FB7F894809161039091620346
:100A2000A0916303B091640326B5A89B05C02F3F36
:100A300019F00196A11DB11D3FBFBA2FA92F982F04
:100A40008827BC01CD01620F711D811D911D43E0FE
:100A5000660F771F881F991F4A95D1F708958F92C7
:100A60009F92AF92BF92CF92DF92EF92FF924B0193
:100A70005C010E940A056B017C010E940A056C1949
:100A80007D098E099F09683E734081059105A8F391
:100A900021E0821A9108A108B10888EEC80E83E00F
:100AA000D81EE11CF11C81149104A104B10429F7A2
:100AB000FF90EF90DF90CF90BF90AF909F908F907E
:100AC00008958F929F92AF92BF92CF92DF92EF9252
:100AD000FF926B017C01BC01A60182E076956795CF
:100AE000579547958A95D1F7D701C60124E0B69569
:100AF000A795979587952A95D1F7840F951FA61FDF
:100B0000B71F4C015D0134E0B694A7949794879485
:100B10003A95D1F7880D991DAA1DBB1D892E9A2ED5
:100B2000AB2EBB24880E991EAA1EBB1EC501AA2788
:100B3000BB27880E991EAA1EBB1EA3E0B0E0A5012C
:100B400094010E941B2BA7019601261B370B480B13
:100B5000590BABE0B0E00E941B2BE5E09695879522
:100B600077956795EA95D1F7680D791D8A1D9B1DCC
:100B7000FF90EF90DF90CF90BF90AF909F908F90BD
:100B80000895CF92DF92EF92FF921F93CF93DF935E
:100B9000EC01162F8091750581110BC01882198206
:100BA0001A821B821092760580917705826080936D
:100BB00077051E3291F11C3209F064C080917605F0
:100BC000882359F180917605843009F07CC0288112
:100BD00039814A815B81A4E6B0E00E941B2B6883C7
:100BE00079838A839B83C880D980EA80FB80C70190
:100BF000B601660F771F881F991F6F5F7F4F8F4F5A
:100C00009F4F0E946105C60ED71EE81EF91EC882BE
:100C1000D982EA82FB8281E02AC081E08093760556
:100C20002981822F82958F702F703AE0839F200D4B
:100C300011248A8181112C598881982F92959F7057
:100C40008F703AE0939F800D11249CE3299F9001BF
:100C50001124820F932F911D092E000CAA0BBB0BA0
:100C600088839983AA83BB831E3249F480E0DF9195
:100C7000CF911F91FF90EF90DF90CF9008951C329D
:100C800009F4A0CF80917605811143C088819981B4
:100C9000AA81BB8134E0880F991FAA1FBB1F3A9518
:100CA000D1F7412F110F550B40535109052E000C60
:100CB000660B770B842B952BA62BB72B88839983F8
:100CC000AA83BB83D3CF853039F4288139814A8107
:100CD0005B81AAE0B0E081CF863009F484CF08F0D0
:100CE0009ACF288139814A815B81A8EEB3E08330B5
:100CF00009F473CF823019F4A0E1B7E26ECF8130EE
:100D000009F071CF60EA76E881E090E00E94CA2A9B
:100D100066CF8F5F809376058730C0F42881398154
:100D20004A815B81AAE0B0E00E941B2B212F110FAA
:100D3000330B205331096901330FEE08FF08DC0142
:100D4000CB018C0D9D1DAE1DBF1DB8CF873009F0A6
:100D50008DCFC880D980EA80FB80C701B601660FBD
:100D6000771F881F991F6F5F7F4F8F4F9F4F0E9484
:100D700061056C0D7D1D8E1D9F1D19334CF06E5F3E
:100D80007F4F8F4F9F4F688379838A839B836ECF7A
:100D90001433CCF36F5F7F4F8F4F9F4FF4CF1F9370
:100DA000CF93DF931F92CDB7DEB7682F1091E20487
:100DB000153009F484C0163009F403C1113009F06C
:100DC00025C1E0917405E150E93008F01FC1F0E061
:100DD000E451F94F0C94DB2CF506F40702072507C4
:100DE000080837073F0706084C07862F0E94EC02C9
:100DF0000F90DF91CF911F91089584E595E00E94B7
:100E0000C10504C18091770582FF00C180917505FD
:100E10008111FCC0633509F0F9C0809154059091AF
:100E20005505A0915605B0915705B095A0959095A0
:100E300081959F4FAF4FBF4F8093540590935505B9
:100E4000A0935605B0935705E1C06C3249F48091E8
:100E50007505811105C0809177058B7F809377059B
:100E60008091770582FFD2C088E595E0C8CF809158
:100E700075058111CBC0862F0E94BE02C7C088E6CF
:100E800095E00E944A03909172059068882309F4C6
:100E9000BDC090937205ACCF42E08CE595E00E9416
:100EA0002D02882309F4B2C021E0909175059111BB
:100EB00001C020E09091720520FB94F9EACF809167
:100EC0005305843108F0A2C020917405243008F441
:100ED0009DC0482F50E02370223079F02330E9F193
:100EE000819FC0011124213029F081519B4F0E9424
:100EF0004A038CC080519B4FFACF149FF001159F7D
:100F0000F00D11246C3201F1809177058E7F809372
:100F1000770540917505862F90E0EE51FB4F41110A
:100F200004C0C097908B878771C0278530894AE0BD
:100F3000429FB001439F700D112460537109680FE7
:100F4000791F708B678762C0ED50FB4F90819F7750
:100F500090838F5F8093530559C041505109149F6E
:100F6000F001159FF00D1124ED50FB4F6C32F1F0A4
:100F700080818F778983CE0101960E944A038091F8
:100F800053058150990B189FF001199FF00D112402
:100F9000ED50FB4F99819F7780818078892B8083EA
:100FA0008091770582608093770530C091E08091D1
:100FB0007505811101C090E0808190FB87F98083E5
:100FC00025C0E0917405E150E93000F5F0E0E5510D
:100FD000F84F0C94DB2CF5063707F40702072507BA
:100FE00008083208440857088091750581110AC025
:100FF00091E06C3209F490E08091770590FB82F9E2
:10100000809377058091770582FDF7CE81E0F0CE61
:101010009091770592FB882780F992FFF7CF909106
:1010200075059111F3CF90917205986090937205B8
:10103000673561F7409158055091590560915A05FF
:1010400070915B0570956095509541955F4F6F4F1E
:101050007F4F409358055093590560935A057093FC
:101060005B05C6CE43E080E695E00E942D02882312
:1010700069F221E090917505911101C020E09091F5
:10108000720520FB95F905CF42E084E695E00E94C9
:101090002D02882309F4BACF21E0909175059111B2
:1010A00001C020E09091720520FB96F9F2CE80916C
:1010B0007505823041F150F48823D1F0813009F078
:1010C000A5CF80916D058053680F1AC0843041F11F
:1010D00010F1853009F09ACF80916F058053680F29
:1010E00060936F05809172058260809372058ECF48
:1010F0006C3209F48BCF60538AE0689F602D112415
:1011000060936D0583CF60538AE0689F602D112442
:1011100060936E057BCF80916E058053680FF8CF8A
:1011200060538AE0689F602D112460936F056ECF35
:1011300020916703309168032817390771F4909163
:10114000650380916603981741F0E0916503F0E034
:10115000E45EFC4F808190E008958FEF9FEF08954B
:101160000895EF92FF920F931F93CF93DF93DC01CB
:101170005C96ED90FC905D97E114F10479F481E0C8
:1011800090E013969C938E93129790E080E0DF910D
:10119000CF911F910F91FF90EF9008955196ED918F
:1011A000FC91529750968C915097982F90950FB72D
:1011B0005E962C915E97122F127021FD6095F89427
:1011C0002081112319F1282B2083E7012197F1F7C2
:1011D00028E0462F50E0308160FF1AC0382B308362
:1011E000E7012197F1F7BA0175956795215089F7C5
:1011F000112381F08081892380830FBF5C968D91BC
:101200009C910197F1F781E090E0C1CF2923DCCFD9
:101210003923E5CF9081892BEFCF2091670330915F
:1012200068032817390771F48091660320916503DC
:1012300090E0805C9F4F821B910960E470E00E9407
:10124000C72C089590E080E00895209167033091C5
:10125000680328173907B9F49091650380916603F4
:10126000981789F0E0916503F0E0E45EFC4F80811F
:101270002091650330E02F5F3F4F2F73332720937A
:10128000650390E008958FEF9FEF08959F92AF92CE
:10129000BF92CF92DF92EF92FF920F931F93CF9363
:1012A000DF9311E0D1E003E092E0F92E84EA94E0CC
:1012B0000E940D09892B09F4CEC184EA94E00E94B2
:1012C0002509C82F8091EB049091EC04A091ED04C6
:1012D000B091EE040196A11DB11D8093EB04909393
:1012E000EC04A093ED04B093EE04C432B9F4809101
:1012F000770584FF05C08F7E809377051092530594
:10130000109273051092E204D0937805109275053F
:10131000809177058D7F80937705C8CF8091780580
:10132000823079F5CA3229F4009378051092750558
:10133000BDCF80EE8C0F8F3550F4809173058C27D4
:10134000809373058C2F0E94CF06811107C01092E5
:1013500072051092E20410927805A8CFCC3259F4AD
:10136000809177058D7F80937705809174058F5FDD
:1013700080937405DBCF809175058F5F8093750531
:1013800095CF813009F061C0909173059C279093AF
:101390007305CC3269F49091E2049923D1F2109252
:1013A00072058093740510927505F09278057ECFD2
:1013B000E090750581E08E1508F05EC18EEFB82EC5
:1013C000BE0C8091E204882309F43DC08150E82FCF
:1013D000F0E0EE0FFF1FEA54FC4F2591349150E0EE
:1013E00040E0CB2CD12C61E0680F70E0F901EC0DEE
:1013F000FD1DE491CE1709F43CC1CE170CF4A9CF22
:10140000AA24A394A80E873009F4A3CFFB01E40F0C
:10141000F51FEE0FFF1FEA54FC4FA591B49190E029
:1014200080E08B1558F4F901E80FF91F9490FD0145
:10143000E80FF91FE49101969E1699F34F5F5F4FF5
:101440008A2D9D01D3CF80E0C2CF833009F0F3C055
:10145000C0628FE98C0F863038F5C75590917505BD
:1014600080917305911122C0D093750590E024E01E
:10147000959587952A95E1F7C817190609F416CFAF
:101480008091E7049091E804A091E904B091EA0406
:101490000196A11DB11D8093E7049093E804A093E9
:1014A000E904B093EA0453CFC053D8CF8F7021E042
:1014B0008C1301C020E08C13E3C08091770581FF7D
:1014C00009C08D7F809377059F5F909375058CE2AF
:1014D0000E94CF068091E3049091E404A091E5047A
:1014E000B091E6040196A11DB11D8093E304909391
:1014F000E404A093E504B093E6049091E20421E0B3
:10150000963009F020E08091770520FB84F98093E4
:1015100077051092780520919805211191C080914E
:10152000720580FF0CC0209171053091970530FF46
:1015300004C030919605321710F42093960581FF70
:101540000CC020916D052093920520916E0520938B
:10155000930520916F052093940582FF10C0209180
:101560006B052093900520916A0520938F052091AB
:10157000690520938E05209170052093950583FFC2
:1015800009C088E0E4E5F5E0A9E7B5E001900D9237
:101590008A95E1F78091720584FF10C040915C0547
:1015A00050915D0560915E0570915F0540938105E6
:1015B00050938205609383057093840586FF10C065
:1015C00040916405509165056091660570916705CD
:1015D0004093890550938A0560938B0570938C0521
:1015E00085FF10C0409160055091610560916205D2
:1015F0007091630540938505509386056093870538
:101600007093880587FF04C08091680580938D05DD
:101610008091720520919705822B809397059630D3
:1016200009F044CE10929A058091980581113ECE22
:10163000109398053BCE811139CE1092E20436CE3C
:101640008860809377051092990580919805815064
:101650008093980564CF80919805DF91CF911F9179
:101660000F91FF90EF90DF90CF90BF90AF909F9041
:1016700008958F5F8093E204E394E092750516CE9F
:101680002111FECE13CE90E080E00895282F082E81
:10169000000C330B205331092A30310510F48053EC
:1016A0000895803231F09FEB980F9A3120F48753E0
:1016B000089584E208958FEF08958093BB0084E835
:1016C0008093BC008091BC0087FFFCCF8091B90063
:1016D000887F0895CF93DF9394EA9093BC00909114
:1016E000BC0097FFFCCF9091B900987F9830E1F44F
:1016F000C62FD82F80EC0E945D0B8831B9F48D2F56
:101700000E945D0B8832A1F48C2F0E945D0B883201
:1017100089F484E98093BC008091BC0084FDFCCFF7
:1017200080E0DF91CF91089581E0FBCF82E0F9CF97
:1017300083E0F7CF84E0F5CF4F925F926F927F9274
:101740008F929F92AF92BF92CF92DF92EF92FF92D1
:10175000CF93DF9300D000D0CDB7DEB74B015C0153
:10176000CA01B90120E030E044E353E40E94752B44
:101770002B013C0120E030E040EA51E40E94E12BE3
:101780000E94532C6B0120E030E044EB52E4C50191
:10179000B4010E94752B4B015C0120E030E040E277
:1017A00051E40E94E12B0E94532C69837A838B833E
:1017B0009C8381E48C0D8093DD0389818F5B809312
:1017C000DE03B601DD0C880B990B0E94972920E0FF
:1017D00030E040EA51E40E94F6299B01AC01C301CC
:1017E000B2010E94742B20E030E040E05FE30E94F1
:1017F000F6290E94532C605D6093DF0329813A81B2
:10180000B901330F880B990B0E94972920E030E033
:1018100040E251E40E94F6299B01AC01C501B401EC
:101820000E94742B0E94532C605D6093E003109221
:10183000E1030F900F900F900F90DF91CF91FF90E9
:10184000EF90DF90CF90BF90AF909F908F907F9060
:101850006F905F904F9008955F926F927F928F92FA
:101860009F92AF92BF92CF92DF92EF92FF920F932F
:101870001F93CF93DF934C01DC0114966D907C9005
:10188000D0E0C0E020E030E040E050E060E070E018
:1018900080E090E0C615D70571F1D401ED91FC917F
:1018A000512C309719F0EC0FFD1F5080E0EDE50D45
:1018B000EA3008F5EAE0AE2EB12CC12CD12CE12C97
:1018C000F12C00E010E00E94E12C59016A017B013B
:1018D0008C01852D550C990BC097E92FEE0FEE0B5F
:1018E0009C014E2F5E2F6E2F7E2F8E2F9E2F0E94DB
:1018F000EB2D2196CFCFDF91CF911F910F91FF90CC
:10190000EF90DF90CF90BF90AF909F908F907F909F
:101910006F905F900895FC011482158216821782E1
:10192000108211821282138211861086138612860B
:101930001586148617861686118A108A138A128ACB
:10194000148A168A178A158A81E0818F828F138EF6
:1019500087E0808F148E158E168E0895CF93DF93B7
:10196000EC010E948B0C809198058823B9F081507E
:1019700080939805809199052FE1289FC00111243B
:10198000FC01E758FA4FDE0101900D922A95E1F72C
:1019900087589A4F0E948B0C10929905CE01DF91C7
:1019A000CF910895FC0101900020E9F73197AF0134
:1019B000481B590BBC0187E094E00C94650383E25B
:1019C00092E00C94D20CCF93DF930E945204EC016E
:1019D0000E94DF0C8C0F9D1FDF91CF910895CF9354
:1019E000DF93FC01448155816081718187E094E03F
:1019F0000E946503EC010E94DF0C8C0F9D1FDF919C
:101A0000CF9108958F929F92AF92BF920F931F93A1
:101A1000CF93DF93CDB7DEB7A1970FB6F894DEBFB3
:101A20000FBECDBF19A2423008F44AE08E010F5D0F
:101A30001F4F842E912CB12CA12CA50194010E9442
:101A4000DA2AE62FB901CA01EA30F4F4E05DD801E0
:101A5000EE938D01232B242B252B79F790E080E04A
:101A6000109719F0CD010E94D20CA1960FB6F894F0
:101A7000DEBF0FBECDBFDF91CF911F910F91BF9001
:101A8000AF909F908F900895E95CE1CFCF92DF9265
:101A9000EF92FF92CF93DF9397FF1BC06B017C0106
:101AA0006DE287E094E00E940504EC016627772749
:101AB000CB016C197D098E099F094AE00E94020D35
:101AC0008C0F9D1FDF91CF91FF90EF90DF90CF9013
:101AD00008954AE0DF91CF91FF90EF90DF90CF9093
:101AE0000C94020D4F925F926F927F928F929F9211
:101AF000AF92BF92CF92DF92EF92FF920F931F931C
:101B0000CF93DF93CDB7DEB7A3970FB6F894DEBFC0
:101B10000FBECDBF6B017C012FB7F89480915D03A0
:101B200090915E03A0915F03B09160032FBFA70166
:101B30009B01280F391F4A1F5B1F28A339A34AA303
:101B40005BA310E000E088EE482E83E0582E612C65
:101B5000712C0E944609882371F0CE0101960E94E3
:101B6000AE0C8FE1FE013196A3ECB4E001900D9232
:101B70008A95E1F7EECF2FB7F89480915D039091AD
:101B80005E03A0915F03B09160032FBF88A099A06E
:101B9000AAA0BBA0881A990AAA0ABB0A31EA83162E
:101BA0003FE09306A104B10484F18DE091E00E942E
:101BB0005204C501B401A30192010E94FC2ACA018A
:101BC000B9010E94460D0E94DF0C68EE73E080E0D0
:101BD00090E00E942F0541E1C41647E2D406E104DB
:101BE000F10458F00F5F1F4F0530110534F081E00C
:101BF00090E00E94420E10E000E087E094E00E9436
:101C0000C303892B09F4A5CF05C0181419041A04BD
:101C10001B049CF351EAC5165FE0D506E104F1040C
:101C2000D0F085E091E0A3960FB6F894DEBF0FBE2A
:101C3000CDBFDF91CF911F910F91FF90EF90DF907B
:101C4000CF90BF90AF909F908F907F906F905F905C
:101C50004F900C94E30CA3960FB6F894DEBF0FBE22
:101C6000CDBFDF91CF911F910F91FF90EF90DF904B
:101C7000CF90BF90AF909F908F907F906F905F902C
:101C80004F9008950F931F93CF93DF938C01D0E073
:101C9000C0E061E080916A030E948D0462E370E01D
:101CA00080E090E00E94720D60E080916A030E94E3
:101CB0008D0462E370E080E090E00E94720D219656
:101CC0000C171D0731F7DF91CF911F910F910895E8
:101CD000CF93DF93682F70E090E080E04AE00E94AD
:101CE000020DEC010E94DF0C8C0F9D1FDF91CF9144
:101CF0000895CF93DF930E94D20CEC010E94DF0C79
:101D00008C0F9D1FDF91CF91089589E292E00C9492
:101D1000D20CCF92DF92FF920F931F93CF93DF935A
:101D2000F12CD5E080915305F81608F07CC087E8C7
:101D300091E00E9452040F2D10E0D09FF001D19F3E
:101D4000F00D1124EE51FB4F85858A3010F40E946E
:101D5000850ED09FC001D19F900D11249C012E5162
:101D60003B4F6901F901658570E090E080E04AE051
:101D70000E94020D82E492E00E94D20CF601878557
:101D800090898436910510F40E94850ED09FF00151
:101D9000D19FF00D1124EE51FB4F878590890A9752
:101DA00010F40E94850ED09FC001D19F900D112488
:101DB0009C012E513B4F6901F9016785708990E0C4
:101DC00080E04AE00E94020D82E492E00E94D20C80
:101DD000F60186858A3010F40E94850ED09F60013E
:101DE000D19FD00C1124F601EE51FB4F668570E0B7
:101DF00090E080E04AE00E94020D82E492E00E94BE
:101E0000D20CF601ED50FB4FC081C7FF0AC0CF775F
:101E1000CA3010F40E94850E8C2F0E94680EF39435
:101E200081CFC0E0F7CFDF91CF911F910F91FF904D
:101E3000DF90CF900C94DF0C0F931F93CF93DF9321
:101E4000EC0188819981009759F02A813B812617FE
:101E5000370730F081E0DF91CF911F910F91089506
:101E60008B016F5F7F4F0E942D2F009759F0998350
:101E700088831B830A832C813D81232B59F7FC0126
:101E80001082E8CF80E0E7CFCF93DF93EC01888129
:101E90009981009711F00E94A42E198218821D8248
:101EA0001C821B821A82DF91CF910895EF92FF92DC
:101EB0000F931F93CF93DF93EC017B018A01BA014B
:101EC0000E941C0F81110BC0CE010E94440FCE0155
:101ED000DF91CF911F910F91FF90EF9008951D8397
:101EE0000C83B701888199810E941830F0CFCF937D
:101EF000DF93EC01FB018617970749F06081718140
:101F00006115710541F0448155810E94560FCE0143
:101F1000DF91CF9108950E94440FF9CFFC01118207
:101F200010821382128215821482FB01019000201C
:101F3000E9F73197AF01461B570B0C94560FFC0184
:101F400080819181009711F00C94A42E08952F9216
:101F50003F924F925F926F927F928F929F92AF9239
:101F6000BF92CF92DF92EF92FF920F931F93CF9386
:101F7000DF93CDB7DEB7CB55D1400FB6F894DEBFB7
:101F80000FBECDBFE1E7F2E08BEADF011D928A953B
:101F9000E9F71091E40364ED73E0CE01805B9E4F9E
:101FA0000E9418306DED73E0CE01895A9E4F0E9459
:101FB0001830CF5ADE4F8881C155D14080538A30C6
:101FC000B8F4CE5ADE4F8881C255D14080538A3052
:101FD00078F045E050E0BE01605B7E4FCB0101969A
:101FE0000E94063080E2C05BDE4F8883C055D1403E
:101FF000CE5ADE4F8881C255D14080538A3030F0AE
:1020000080E3CE5ADE4F8883C255D140FE01E05BAB
:10201000FE4F7F016F01F6E0CF0ED11C00E2D70129
:102020008C91082E000C990B0E94F52FF7018083EC
:10203000082E000C990B9C01205331092A303105E0
:1020400030F00E94EA2F892B11F4D7010C93BFEFD7
:10205000EB1AFB0ACE14DF0411F786E0FE01E05B09
:10206000FE4FAAE6B2E001900D928A95E1F7FE01DB
:10207000E95AFE4F7F016F01F4E0CF0ED11CD7016A
:102080008D917D01082E000C990B0E94F52FF70110
:1020900031978083282F082E000C330B20533109F1
:1020A0002A30310568F08154823150F085E0E6E253
:1020B000F2E0DE01A95ABE4F01900D928A95E1F738
:1020C000CE14DF04E1F684E0FE01E95AFE4FA5E6F6
:1020D000B2E001900D928A95E1F7812F1D3308F04F
:1020E0008CE393E1EAE0F1E0DE01119601900D92BC
:1020F0009A95E1F710916402FE0131969E012C5EE3
:102100003F4FDF019D91891301C0182F2A173B070C
:10211000C9F721E030E02C0F3D1F2E5E3F4F91812B
:10212000891720F49081891708F0192F31962E17FE
:102130003F07A9F71093640280916A020E94460B40
:10214000282F30E0A4E2B0E00E94652B6B017C01F7
:1021500080916B020E94460BA7019601280F311D4A
:10216000411D511DAAE0B0E00E941B2B6B017C01B8
:1021700080916C020E94460BA7019601280F311D29
:10218000411D511DABE1B0E00E941B2B6B017C0196
:1021900080916D020E94460BE82FEA50FF0B9F01D1
:1021A000032E000C440B550B2C0D3D1D4E1D5F1DC9
:1021B000ABE1B0E00E941B2B6B017C0180916E02B1
:1021C0000E94460B482F4A50550B9A01032E000CD3
:1021D000440B550B2C0D3D1D4E1D5F1DABE1B0E0BA
:1021E0000E941B2B6B017C0180916F020E94460BA9
:1021F0008A50990B092E000CAA0BBB0B8C0D9D1D50
:10220000AE1DBF1D40916502042E000C550B4154BC
:10221000510966EF64039001659F300D11244091D0
:102220006702241B310947FD33952D513F4F64EB65
:10223000629FA001639F500D112420916602022E1F
:10224000000C330B21543109EAE0E29FB001E39F17
:10225000700D1124460F571F20916802022E000CAA
:10226000330B20533109420F531F052E000C660B10
:10227000770B07E0440F551F661F771F0A95D1F7AC
:10228000405C5F4F6F4F7F4F410F511D611D711DAE
:102290008C019D01E4E03695279517950795EA9501
:1022A000D1F7C95BDE4F0883C754D1408C019D0133
:1022B000FCE03695279517950795FA95D1F7CA5BF7
:1022C000DE4F0883C654D1408C019D01A4E13695B0
:1022D000279517950795AA95D1F7CB5BDE4F088315
:1022E000C554D140242F2295220F220F207CC55B9C
:1022F000DE4F2883CB54D1408A019B01B2E0369552
:10230000279517950795BA95D1F7C65BDE4F0883D9
:10231000CA54D1408A019B019AE0369527951795BA
:1023200007959A95D1F7C75BDE4F0883C954D14012
:1023300022E176956795579547952A95D1F74F7085
:102340008295807F482BC85BDE4F4883C854D140BC
:10235000C45BDE4F1882CC54D140C35BDE4F188281
:10236000CD54D140C25BDE4F1882CE54D140C15B08
:10237000DE4F1882CF54D140FE01EB5BFE4F8F0140
:10238000055F1F4F20E040E050E0BA01CE018D55BF
:102390009F4FE190F12C312C212C4A015B01880CDC
:1023A000991CAA1CBB1CB701022C02C0660F771F28
:1023B0000A94E2F7660F672F661F770B617024019E
:1023C000462AB501A2014A0131E5832233E5932271
:1023D00030EDA32232EFB322A0E2DA2E712CA82D29
:1023E000A1707A26B694A79497948794DA94D11022
:1023F000F6CF6C01C20ED11CD6017C92CC24C394C2
:10240000C20E4A015B01B7E48B22BCE39B22B1E61A
:10241000AB22B4EEBB22B0E2DB2E30E0A82DA170DF
:102420003A27B694A79497948794DA94D110F6CF6C
:10243000C80ED92ED11CD6013C932E5F223A40F40F
:10244000BFEF2B1A3B0A38E02316310409F0A5CF61
:102450000E171F0709F09DCF30E020E001E010E0EB
:10246000622F47E050E0E0E0A62FB0E060FF07C039
:10247000B801042E01C0660F0A94EAF7E62BBD01ED
:10248000759567954150510978F7E23A68F4A1E0F3
:10249000B0E0AC0FBD1FAE0FB11DFD01DC01A30FFD
:1024A000B11D4C9140833F5F323A18F42F5F2F3FAC
:1024B000B9F622EAFE013196DC0101900D922A95CF
:1024C000E1F722EAEDE1F1E0DE01119601900D92D3
:1024D0002A95E1F7FE013196AC0161E772E0319196
:1024E000DA012D91AD01220F230FDB012D93BD01E8
:1024F0008E179F07A1F7C55ADE4F0FB6F894DEBFBF
:102500000FBECDBFDF91CF911F910F91FF90EF9044
:10251000DF90CF90BF90AF909F908F907F906F9003
:102520005F904F903F902F9008954F925F926F92DF
:102530007F928F929F92AF92BF92EF92FF920F93F2
:102540001F93CF93DF93CDB7DEB7C054D1090FB639
:10255000F894DEBF0FBECDBF90E4EFEBF1E0DE01FB
:10256000119601900D929A95E1F781116CC087E563
:1025700090E030E020E0032F122F44244A94542CA2
:1025800032017801E80EF91E0E151F050CF060C02F
:10259000C8010E94B42A92012827D301C9018F7073
:1025A0009927AA27BB27880F991F880F991F41E0F9
:1025B00050E04C0F5D1F840F951FFC0180809180BF
:1025C000A280B38034E076946794579447943A9508
:1025D000D1F784249524A624B724C8010E94B42AE4
:1025E00090E044E0959587954A95E1F7092E000C17
:1025F000AA0BBB0B88259925AA25BB258F70992787
:10260000AA27BB27880F991F880F991F21E030E068
:102610002C0F3D1F820F931FFC0140805180628070
:10262000738064E0B694A794979487946A95D1F7E1
:10263000482459246A247B244094509460947094D4
:102640000F5F1F4FA1CF8AE090E030E921E093CFE8
:10265000C301B201C05CDF4F0FB6F894DEBF0FBEFE
:10266000CDBFDF91CF911F910F91FF90EF90BF9061
:10267000AF909F908F907F906F905F904F90089554
:102680008F929F92AF92BF92CF92DF92EF92FF9282
:102690000F931F93CF93DF9300D000D0CDB7DEB759
:1026A000882309F44DC09CE6E92E93E0F92E00E959
:1026B00011E0C8010E94B42AF70181937F010F5FE6
:1026C0001F4F0A39F1E01F07A1F781E00E94951220
:1026D0004B015C010AE010E080E991E0080F191F4E
:1026E0006E01F5E0CF0ED11CCE0101967C01081BD6
:1026F000190BC8018E0D9F1D0E94B42AF70181930A
:102700007F01CE16DF06A9F781E049815A816B81EE
:102710007C81481559056A057B0509F080E00F901A
:102720000F900F900F90DF91CF911F910F91FF901D
:10273000EF90DF90CF90BF90AF909F908F900895D3
:102740008AEAE82E83E0F82E10E000E0C8010E943B
:10275000B42AF70181937F010F5F1F4F07351105E1
:10276000A9F780E00E9495124B015C0107E510E09B
:1027700090E080E0B3CF2F923F924F925F926F92A2
:102780007F928F929F92AF92BF92CF92DF92EF9201
:10279000FF920F931F93CF93DF93CDB7DEB7A09730
:1027A0000FB6F894DEBF0FBECDBF4C011801290152
:1027B0004C8F5D8F6E8F7F8FE8A265E272E00E9482
:1027C0008E0F90E4A92E22E4B22E3FE0C32ED12C2E
:1027D000E12CF12C00E010E09101A2016C8D7D8DC7
:1027E0008E8D9F8D0E94752D9F938F937F936F93F6
:1027F0005F934F933F932F938BE292E09F938F933E
:102800003E01BEE06B0E711C7F926F920E942E30D3
:102810009101A2016C8D7D8D8E8D9F8D0E94732DF7
:102820009F938F937F936F935F934F933F932F93D8
:10283000EBE2F2E0FF93EF932E0185E1480E511C8D
:102840005F924F920E942E30F30101900020E9F731
:102850003197AF0146195709B301C4010E94560FC1
:102860001A8219821C821B821E821D82B4018E0173
:102870000F5F1F4FC8010E94770FF20101900020E7
:10288000E9F73197E419F5090FB6F894DEBF0FBEEA
:10289000CDBFB1F06D807E806E0E7F1EB301C8018A
:1028A0000E941C0F882309F45CC029813A818D8124
:1028B0009E81B201820F931F0E9418307E826D822A
:1028C000B801C4010E94770FC8010E949F0FB8A1F0
:1028D000B1112DC0F401648075806114710409F098
:1028E00044C01982F801CE010D9620E231913033B7
:1028F00031F4DF0111972C938E179F07B9F7F80178
:1029000001900020E9F73197AF01401B510BB8014E
:10291000C4010E94560FF40120803180211431043B
:1029200031F06480758021016114710491F5C40156
:10293000A0960FB6F894DEBF0FBECDBFDF91CF914A
:102940001F910F91FF90EF90DF90CF90BF90AF90CD
:102950009F908F907F906F905F904F903F902F90BF
:102960000895C8010E94440FABCFFCE06F167104BC
:1029700018F08CE0682E712CD4016D917C91A3012C
:10298000C8010E941F30F801E60DF71D1082AACF82
:10299000280182010F5F1F4FD2018C91082E000C7D
:1029A000990B0E947C29892B99F7B1E06B1A710869
:1029B000620C731CF3018081082E000C990B0E949D
:1029C0007C29892B39F06414750420F0F1E06F1A2A
:1029D0007108F0CFA3014F5F5F4F44195509D4012F
:1029E00015965C934E9314972414350420F4B20189
:1029F000C1010E94FD2FD401ED91FC911197149615
:102A00008D919C91E80FF91F108291CFEF920F9357
:102A10001F93CF93DF9300D000D000D0CDB7DEB7A7
:102A200082508A3080F4E82FF0E0E75EFA4E0C9492
:102A3000DB2C53155C15B315B615B915DB15DE1572
:102A40000F16E415E11580E891E00E945204809190
:102A500005049091060481309105F1F0B0F00297E1
:102A600041F481E392E00E94790E88E791E00E94B0
:102A7000E30C26960FB6F894DEBF0FBECDBFDF91F4
:102A8000CF911F910F91EF90089583E392E00E9400
:102A9000790E80E791E0EBCF85E392E00E94790E1A
:102AA00088E691E0E4CF81E691E00E9452048DED4A
:102AB00093E00E94790EDDCF0091DA0410E01093CC
:102AC0006302009362028091D90490E090936102C6
:102AD000809360028091D80490E0909302048093E8
:102AE00001048AE591E00E9452040A30110514F4B1
:102AF0000E94850E6091620270916302072E000CA5
:102B0000880B990B0E94460D88E591E00E945204C3
:102B100080916002909161020A9714F40E94850EE0
:102B20006091600270916102072E000C880B990B76
:102B30000E94460D86E591E00E94520480910104B6
:102B4000909102040A9714F40E94850E609101048A
:102B500070910204072E000C880B990B0E94460D01
:102B60000E94DF0C86CF8EE491E081CF86E491E075
:102B70007ECF8FE391E00E945204009158021091A1
:102B8000590220915A0230915B0240915C025091AF
:102B90005D0260915E0270915F02E12CCE010196B0
:102BA0000E94BB13CE0101960E94EF0CCE0101964C
:102BB0000E949F0F5ECF87E391E059CF8FE291E0B3
:102BC00056CF89E291E053CF82E291E00E94520415
:102BD0008EE480937C0062E070E080E090E00E94F0
:102BE0002F0580917A00806480937A0080917A002A
:102BF00086FDFCCF8091780020917900322F282F1C
:102C0000032E000C440B550B64EB7BE281E190E05A
:102C10000E94FC2AB901330F880B990B9FCF8BE1DF
:102C200091E00E94520480917603811104C087E3F1
:102C300092E00E94790E80917603813021F489E33D
:102C400092E00E94790E80917603823021F48BE32A
:102C500092E00E94790E80917603833009F009CFCB
:102C60008AE492E026CF60E880E10E946A0B60E08F
:102C700088E00E948D0488E00C94061589E00E948B
:102C8000061590916C03809176039130F1F5909147
:102C90006D039430D1F5813091F028F08230C1F08D
:102CA000833031F1089560E085E00E94D90460E04E
:102CB00086E00E94D90460E087E00C94D90461E0CA
:102CC00085E00E94D90460E085E00E948D04EFCF8A
:102CD00060E085E00E94D90460E086E00E94D904AB
:102CE00061E087E00E94D90460E087E00C948D04E5
:102CF00060E085E00E94D90461E086E00E94D9048A
:102D000060E086E00E948D04EBCF813079F028F0FE
:102D1000823071F08330B1F0089560E085E00E9468
:102D20008D0460E086E00E948D04DECF61E0F6CF86
:102D300060E085E00E948D0460E086E00E948D04E2
:102D400061E0D3CF60E085E00E948D0461E0F5CFC3
:102D50004091720350E0481303C01092760351E093
:102D600030917303381304C091E09093760351E0DF
:102D700020917403281304C092E09093760351E0ED
:102D800090917503981304C083E08093760308C084
:102D9000511106C0833690F4481304C01092760394
:102DA0000C943E16381302C081E0EFCF281302C006
:102DB00082E0EBCF981741F38F5FECCF833681F73A
:102DC00082E6481749F0381759F0281771F098171C
:102DD00051F08150B1F7842F10927603381303C05D
:102DE00031E030937603281303C022E0209376036A
:102DF0009813D6CFC9CFE5EEF3E022EF33E081E0C0
:102E00009191911180E02E173F07D1F7E09169036E
:102E1000882389F0109258021092590210925A0297
:102E200010925B0210925C0210925D0210925E02A0
:102E300010925F020895EF5FED3008F0E0E0AE2FF2
:102E4000B0E0A655BC4FDB968C918823A1F3E093AC
:102E50006903E150EC3088F4F0E0EF5CF84E0C943C
:102E6000DB2C62176F177A17851790179B17A61719
:102E7000B117BC17C717D217E21780EF809358021B
:102E80008EEC8093590281ED80935A0210925B027E
:102E900010925C0210925D0210925E0210925F022C
:102EA0008DE392E00E94D20C809169038A3010F485
:102EB0000E94850E809169030E94680E80916903CB
:102EC0000C94A81680E5809358028CED80935902EB
:102ED00085ED80935A0282E080935B02D9CF80ED2A
:102EE0008093580287EB8093590284EF80935A02B3
:102EF0008AE0F2CF80E5809358028AE880935902F5
:102F000087E480935A0285E1E7CF80E180935802FD
:102F100087E58093590286EF80935A0289E2DCCFDD
:102F200080EA8093580287EB8093590280E7809370
:102F30005A028CE3D1CF80EB8093580287E78093CD
:102F4000590286E080935A0284E5C6CF80E58093DB
:102F5000580287EB809359028BEE80935A028BE6DE
:102F6000BBCF80E18093580288E1809359028EEBB9
:102F700080935A028DE7B0CF80ED8093580285E3AD
:102F80008093590282E980935A0284E9A5CF80EDAB
:102F90008093580285E08093590285EA80935A0213
:102FA00087EA9ACF80E18093580281E580935902A5
:102FB00087EC80935A028BE280935B0281E08093DE
:102FC0005C0268CF80ED809358028AEA80935902B0
:102FD00088EC80935A0281EAEFCF82E090E09093F0
:102FE00006048093050460E080916A030E948D04CA
:102FF0000E94331681E00C9406152F923F924F9257
:103000005F926F927F928F929F92AF92BF92CF9278
:10301000DF92EF92FF920F931F93CF93DF93CDB781
:10302000DEB76F970FB6F894DEBF0FBECDBF2F830C
:10303000388749875A876B877C878D879E878090E2
:103040006E0390906F03A0907003B0907103A4E69C
:10305000B0E0A50194010E941B2B7B018C0120E0B4
:1030600030E0A9016F87F88A898B1A8B2B8B3C8BF8
:103070004D8B5E8BC501B4010E9495296C8F7D8FAD
:103080008E8F9F8F2F81388549855A856B857C85EA
:103090008D859E85211501EE300705EF400705E07F
:1030A0005007610571058105910509F008F453C1C8
:1030B00059016A017B018C0120E034E04BE654EFBA
:1030C00064E170E080E090E00E94752D2F8B388FD6
:1030D000498F5A8F0E94E12C19012A013B014C01B2
:1030E000AF84B888C988DA88E12CF12C00E010E0C0
:1030F0000E94752D2B8F9101A201B301C4010E9482
:10310000732DB901CA010E94952920EF3FEF4FE7C7
:1031100059E40E94F6292C8D3D8D4E8D5F8D0E94C5
:10312000E12B0E945A2C24E630E040E050E00E945F
:10313000DA2A49015A01C501B4010E94952920EFFC
:103140003FEF4FE759E40E94E12B20E030E040E000
:1031500053E40E94F6290E945A2C9B01AC018B8DEE
:10316000482E512C712C612C87E0440C551C661C98
:10317000771C8A95D1F7E2E05E1A61087108420E69
:10318000531E641E751E97E0880C991CAA1CBB1C5C
:103190009A95D1F76FEF7FEF8FE090E00E94CA2AF7
:1031A000861A970AA80AB90A6FEF8AE10E946A0B89
:1031B0006FEF8BE10E946A0B662D63708CE10E94B9
:1031C0006A0B9927872D762D652D8DE10E946A0B5C
:1031D000642D8EE10E946A0B6A2D606F8FE10E9460
:1031E0006A0B99278B2D7A2D692D80E20E946A0B3C
:1031F000682D81E20E946A0B8F88988CA98CBA8C0A
:1032000004E0801A9108A1080EEFB00A47E0880C8C
:10321000991CAA1CBB1C4A95D1F760E08AE20E9467
:103220006A0B61E08BE20E946A0B6A2D6370612B6E
:103230008CE20E946A0B99278B2D7A2D692D8DE2E5
:103240000E946A0B682D8EE20E946A0B60E08FE29A
:103250000E946A0B60E080E30E946A0B60E081E3F9
:103260000E946A0B8091500290915102A0915202EB
:10327000B09153022F81388549855A85281B390B17
:103280004A0B5B0BDA01C901B7FF07C0B095A095E7
:10329000909581959F4FAF4FBF4F813A9648A1407F
:1032A000B10524F060EA81EB0E946A0B6FE480E1D3
:1032B0000E946A0B4F8140935002588550935102EF
:1032C000898580935202EA85E0935302EB84E09271
:1032D0005402FC84F09255020D85009356021E851F
:1032E0001093570261E088E00E948D0484E191E030
:1032F0000E945204E12C0F81188529853A854B855F
:103300005C856D857E85CE0101960E94BB13CE0142
:1033100001960E94EF0CCE0101960E949F0F87E05C
:103320000E9406156F960FB6F894DEBF0FBECDBF94
:10333000DF91CF911F910F91FF90EF90DF90CF9091
:10334000BF90AF909F908F907F906F905F904F90C5
:103350003F902F9008952F81388549855A856B8538
:103360007C858D859E8507E00E94D22D59016A01DA
:103370007B018C0120E034E04BE654EF64E170E027
:1033800080E090E00E94752D2F8B388F498F5A8FE7
:1033900060E070E080E090E00E94E12C19012A01D9
:1033A0003B014C01AF84B888C988DA88E12CF12C44
:1033B00000E010E00E94752D2B8F9101A201B30156
:1033C000C4010E94732DB901CA010E94952920EF02
:1033D0003FEF4FE759E40E94F6292C8D3D8D4E8D2D
:1033E0005F8D0E94E12B0E945A2C24E630E040E0E1
:1033F00050E00E94DA2A49015A0110E79CCE2F9230
:103400003F924F925F926F927F928F929F92AF9274
:10341000BF92CF92DF92EF92FF920F931F93CF93C1
:10342000DF93CDB7DEB7A1970FB6F894DEBF0FBE1E
:10343000CDBF1092060410920504E5EEF3E022EFF2
:1034400033E081E09191911180E02E173F07D1F791
:10345000882309F43FC089ED90E00E94E30C81E0ED
:103460009091D4039134C1F59091D5039134A1F595
:103470009091D603903381F59091D703913461F503
:103480009091D803913441F59091D903913421F56D
:1034900082EC90E00E94E30C83EA90E00E94E30C4F
:1034A000A1960FB6F894DEBF0FBECDBFDF91CF91CE
:1034B0001F910F91FF90EF90DF90CF90BF90AF9052
:1034C0009F908F907F906F905F904F903F902F9044
:1034D0000C94ED1780E0C4CF8111DECF1092690308
:1034E0000E94FB160E94062928EC30E040E050E0E4
:1034F0000E94FC2A645671098109910924E630E092
:1035000040E050E00E94392DA0905802B09059023E
:10351000C0905A02D0905B02E0905C02F0905D0295
:1035200000915E0210915F020E94EB2D20935802E1
:103530003093590240935A0250935B0260935C02AD
:1035400070935D0280935E0290935F020E94331637
:1035500081E00E940615712C612C87E094E00E94A6
:10356000C303892B09F0F6C10E944609882309F498
:10357000DDC1CE0101960E94AE0C8FE1FE013196B5
:10358000A3ECB4E001900D928A95E1F783E00E94EC
:10359000061587E094E00E94C3033C01892B09F0E3
:1035A000D9C18091E10483FFB3C182FB882480F8F4
:1035B00082FFAEC18091DA0490E090936302809321
:1035C00062021091D904812F90E090936102809360
:1035D00060024090D804512C5092020440920104A1
:1035E0008091DB039091DC03019731F56091C70472
:1035F0007091C8048091C9049091CA040E949729CF
:1036000025E93FEB46ED53E30E94F6296B017C016F
:103610006091C3047091C4048091C5049091C60464
:103620000E94972925E93FEB46ED53E30E94F629D6
:10363000A70196010E949C0B81E04816510409F0F5
:1036400052C110FD54C18091E2039091E3030197B0
:1036500079F56091CD047091CE04072E000C880B93
:10366000990B0E9497292AE037ED43E25CE30E9420
:10367000F6296B017C016091CB047091CC04072E7C
:10368000000C880B990B0E9497299B01AC01C70184
:10369000B6010E94752B20E030E046E953E40E9419
:1036A000E12B0E945A2C6D3308F079C06093E4033B
:1036B0000E94A70F61E080916A030E948D048FB77A
:1036C000F89420905D0330905E0340905F0350902B
:1036D00060038FBFE1E7F2E0F9A3E8A3FBEA2F0E56
:1036E000F2E03F1E411C511C912CE8A1F9A141912F
:1036F000F9A3E8A3F2E94F9FA0011124952F990F98
:10370000990B9A01492F592F692F792F892FA09052
:103710005802B0905902C0905A02D0905B02E090DB
:103720005C02F0905D0200915E0210915F020E94C7
:10373000EB2D0E94FD172FB7F89480915D039091B7
:103740005E03A0915F03B09160032FBF82159305C4
:10375000A405B50530F487E094E00E94C303892BEB
:1037600051F388E890E00E945204809169038A3006
:1037700010F40E94850E6091690370E090E080E093
:103780004AE00E94020D82E492E00E94D20C89E09D
:10379000891548F00E94850E0E94850E07C09CE3A3
:1037A0009093E40385CF93E69915B0F7892D0E9495
:1037B000680E06E010E0F0906A0361E08F2D0E9431
:1037C0008D0465E070E080E090E00E942F0560E0ED
:1037D0008F2D0E948D0462E370E080E090E00E94F3
:1037E0002F050150110939F787E094E00E94C303C7
:1037F0008C01892B09F074C09394EBEA2E0EE2E061
:103800003E1E411C511CF2EA9F126FCF0E943316DC
:1038100060E080916A030E948D04012B09F09AC038
:10382000E0916903EC3071F0F0E0E655FC4F84ADB7
:103830008111812C3196CF018A5A93400C97BCF3A9
:10384000882089F02091F5033091F6034091F70329
:103850005091F803A8EEB3E00E941B2B0E94720D5A
:103860008BE00E9406150E94FB160E94062928EC98
:1038700030E040E050E00E94FC2A64567109810962
:10388000910924E630E040E050E00E94392DA090FC
:103890005802B0905902C0905A02D0905B02E0905A
:1038A0005C02F0905D0200915E0210915F020E9446
:1038B000EB2D209358023093590240935A025093B3
:1038C0005B0260935C0270935D0280935E02909352
:1038D0005F0268EB7BE080E090E00E94720D44CED6
:1038E00001E010E093CF89E34816510444F484E0EA
:1038F0000E94061582E00E9406150E94890E82E051
:1039000090E00E94420E68EC70E080E090E0E5CF2D
:103910000E94890E81E090E00E94420E85E00E94A4
:10392000061560E971E080E090E0D7CF9FEF691A5B
:10393000790AE1E36E16E5E77E060CF40ECE8FE819
:1039400090E00E94E30C60ED77E080E090E00E9460
:10395000720D01CEA1960FB6F894DEBF0FBECDBF9B
:10396000DF91CF911F910F91FF90EF90DF90CF905B
:10397000BF90AF909F908F907F906F905F904F908F
:103980003F902F900895CF92DF92EF92FF92CF93C6
:1039900081E090E090930604809305042091F90360
:1039A0003091FA034091FB035091FC036091FD03B9
:1039B0007091FE038091FF039091000420935802C0
:1039C0003093590240935A0250935B0260935C0219
:1039D00070935D0280935E0290935F020E94892C37
:1039E0006B017C012CEF30E441E451E50E94902909
:1039F000CEE087FFCFE028E430E341E850E5C7019F
:103A0000B6010E94902987FDCDE02AE93BEA4AEF02
:103A10005FE4C701B6010E94902987FDCCE02EEF3C
:103A20003DED43EB5FE4C701B6010E94902987FD9D
:103A3000CBE02EE63CE249E45FE4C701B6010E9418
:103A4000902987FDCAE02EE039E442E35FE4C70134
:103A5000B6010E94902987FDC9E02DE134EE46E1D0
:103A60005FE4C701B6010E94902987FDC8E02AEFF4
:103A70003CE64DEE5EE4C701B6010E94902987FD49
:103A8000C7E02FE139EA49EC5EE4C701B6010E94C4
:103A9000902987FDC6E026E83EE041E95EE4C701E3
:103AA000B6010E94902987FDC5E02CE33BE649E47E
:103AB0005EE4C701B6010E94902987FDC4E023E6B9
:103AC00038E44CEC5DE4C701B6010E94902987FD03
:103AD000C3E027E93AE542E55DE4C701B6010E948B
:103AE000902987FDC2E029E132EC49E55CE4C70199
:103AF000B6010E94902987FDC1E021E235EC4BE739
:103B00005BE4C701B6010E94902987FDC0E08C2FBD
:103B10000E94A816209158023091590240915A02F1
:103B200050915B0260915C0270915D0280915E0237
:103B300090915F020E94FD1761E080916A030E94EC
:103B40008D0481E00E94061586E0CF91FF90EF90F2
:103B5000DF90CF900C940615FF920F931F93CF9395
:103B6000DF93EC01F62E08811981C8010E94B42A66
:103B7000F81621F06F2DC8010E94BC2ACE01DF91FA
:103B8000CF911F910F91FF900895CF92DF92EF9206
:103B9000FF920F931F93CF93DF9300D000D000D0FC
:103BA000CDB7DEB7D82E2AEAE22E23E0F22E10E0BF
:103BB00000E08823D9F03CE6E32E33E0F32E00E961
:103BC00011E01A830983F70161917F01CE0101960B
:103BD0000E94AC1D0F5F1F4F0A39F1E01F0789F7E4
:103BE0008AE0E82EF12C00E911E013C01A83098362
:103BF000F70161917F01CE0101960E94AC1D0F5F1C
:103C00001F4F0735110591F797E5E92EF12C10E0CC
:103C100000E08D2D0E94951269837A838B839C83AB
:103C2000E00EF11E6E01F5E0CF0ED11C8E010F5F8C
:103C30001F4FE01AF10AC701800F911F9E838D83E9
:103C4000F80161918F01C6010E94AC1DC016D1061A
:103C500091F726960FB6F894DEBF0FBECDBFDF9169
:103C6000CF911F910F91FF90EF90DF90CF9008952B
:103C70001F920F920FB60F9211242F933F934F93E1
:103C80005F936F937F938F939F93AF93BF93EF93C4
:103C9000FF9387E094E00E94E303FF91EF91BF91CF
:103CA000AF919F918F917F916F915F914F913F91D4
:103CB0002F910F900FBE0F901F9018951F920F928B
:103CC0000FB60F9211242F938F939F93EF93FF932F
:103CD000E0911704F09118048081E0911D04F091A7
:103CE0001E0482FD1BC09081809120048F5F8F7322
:103CF00020912104821741F0E0912004F0E0E95F77
:103D0000FB4F958F80932004FF91EF919F918F91AE
:103D10002F910F900FBE0F901F9018958081F4CFB8
:103D20001F920F920FB60F9211242F933F938F93F0
:103D30009F93AF93BF9380915D0390915E03A09199
:103D40005F03B091600330915C0326E0230F2D37B1
:103D500058F50296A11DB11D20935C0380935D036D
:103D600090935E03A0935F03B0936003809161031F
:103D700090916203A0916303B09164030196A11D29
:103D8000B11D8093610390936203A0936303B0938A
:103D90006403BF91AF919F918F913F912F910F90AD
:103DA0000FBE0F901F90189529E8230F0396A11DB1
:103DB000B11DD2CF1F920F920FB60F9211242F93E5
:103DC0003F934F935F936F937F938F939F93AF93A3
:103DD000BF93EF93FF93E0916703F09168033097EF
:103DE00049F0A685B7858585968D91FF14C09C9175
:103DF0008923A1F4FF91EF91BF91AF919F918F9192
:103E00007F916F915F914F913F912F910F900FBED6
:103E10000F901F9018959C91892361F7A389B4890D
:103E20009C918589809589238C93868997890197B0
:103E3000F1F7608D718DA685B785558538E020E056
:103E4000CB010197F1F7822F90E095958795282F68
:103E50004C91452309F02068315091F7868D81FD02
:103E600020958091660390E001968F739927309199
:103E70006503381799F0A0916603B0E0A45EBC4FCB
:103E80002C9380936603828D938D0197F1F7A3891C
:103E9000B4898C919589892B8C93ACCF868D816068
:103EA000868FF1CF1F920F920FB60F9211240F90B1
:103EB0000FBE0F901F901895CF92DF92EF92FF9256
:103EC00010920A041092090498EEC92E93E0D92E9C
:103ED000E12CF12CC0920B04D0920C04E0920D0462
:103EE000F0920E0483E092E090930804809307041C
:103EF00085EC90E0909314048093130484EC90E09C
:103F0000909316048093150480EC90E0909318042D
:103F10008093170481EC90E090931A048093190425
:103F200082EC90E090931C0480931B0486EC90E05C
:103F300090931E0480931D0410922004109221047B
:103F4000109222041092230484E595E00E948B0CC9
:103F500089E795E00E948B0C1092E3041092E40430
:103F60001092E5041092E6041092E7041092E8041F
:103F70001092E9041092EA041092EB041092EC04FF
:103F80001092ED041092EE0484E595E00E948B0CF3
:103F9000109253051092780583EC94E00E948B0CEC
:103FA0001092A7041092A604C092A804D092A9046B
:103FB000E092AA04F092AB0485E192E09093A5040C
:103FC0008093A4041092BB041092BA041092BD0412
:103FD0001092BC041092BF041092BE041092C1044F
:103FE0001092C0046091C2046E7F6D7F6093C20422
:103FF0006695617081E0682783E00E948D0461E02E
:1040000083E00E94D904E1EFF3E0E491E093B4048B
:10401000EDEDF3E0E491F0E0EE0FFF1FE053FC4F15
:10402000859194919093B6048093B50460E082E00A
:104030000E94D9048091C20481FD04C061E082E045
:104040000E948D0482E08093B004E0EFF3E0E491FD
:10405000E093B104ECEDF3E0E491F0E0EE0FFF1F2C
:10406000EA53FC4F859194919093B3048093B204EA
:10407000FF90EF90DF90CF900895CF93DF93CDB76F
:10408000DEB7C556D1090FB6F894DEBF0FBECDBF5F
:10409000789484B5826084BD84B5816084BD85B523
:1040A000826085BD85B5816085BD80916E0081602F
:1040B00080936E00109281008091810082608093D5
:1040C00081008091810081608093810080918000D7
:1040D0008160809380008091B10084608093B10002
:1040E0008091B00081608093B00080917A008460FC
:1040F00080937A0080917A00826080937A00809128
:104100007A008E7F80937A0080917A008068809315
:104110007A001092C100E0911704F091180482E037
:104120008083E0911304F09114041082E09115044F
:10413000F091160487E6808310921F04E0911B041F
:10414000F0911C0486E08083E0911904F0911A0438
:10415000808180618083E0911904F0911A0480814C
:1041600088608083E0911904F0911A04808180684E
:104170008083E0911904F0911A0480818F7D8083FF
:1041800080ED97E0A0E0B0E080930B0490930C04E6
:10419000A0930D04B0930E041092BF041092BE04BD
:1041A0001092BD041092BC041092BB041092BA0489
:1041B0008DEC90E09093C1048093C0049091B00482
:1041C000963108F047C025E530E03093BB042093DA
:1041D000BA042BEC30E03093BD042093BC0420E9FA
:1041E00030E03093BF042093BE042091680084E047
:1041F000983048F031E09E3008F430E081E001C0B2
:10420000880F3A95EAF7822B809368002DE630E01C
:10421000983050F02BE630E09E3030F02CE630E065
:10422000963110F030E020E03093B8042093B704CA
:10423000292F30E0983008F086C181E001C0880F56
:104240009A95EAF78093B9048091C0049091C104D3
:104250000197F1F78091BE049091BF04892B49F139
:10426000E0916703F091680324E0E43AF20709F172
:10427000309739F0A389B4899C91858980958923E9
:104280008C938091C2048E7F8093C2041092660347
:104290001092650384EA94E0909368038093670327
:1042A000E091B704F091B80480819091B904892B12
:1042B00080838CE58093B8001092B9008FEF8093D3
:1042C000BB001092640081E00E944013811126C05F
:1042D00081E080936C0380E180936D038CEA9CEF16
:1042E000ABE9B1E080936E0390936F03A0937003EA
:1042F000B093710382E08093720383E08093730331
:1043000084E08093740386E0809375038CE992E0E7
:104310000E94E30C82E392E00E94E30C80E00E94A2
:104320004013882309F41CC18091D2039091D303D8
:1043300090930604809305041092DA031092E1032F
:1043400084E090E090936B0380936A0386ED91E0A4
:104350000E94E30C80916C03813009F079C1809157
:104360006D03843009F074C160E085E00E94D904D7
:1043700060E086E00E94D90460E087E00E94D904F2
:1043800061E080916A030E94D90461E088E00E94A4
:10439000D9048EEB91E00E94520488EB91E00E94D8
:1043A00052048CEA91E00E9452044AE060E070E01E
:1043B000CB010E94020D84E492E00E94D20C8AE5B7
:1043C0000E94680E80E190E00E94420E80E4EFEBD4
:1043D000F1E0DE01119601900D928A95E1F724E655
:1043E00030E088248A94982C5401E0E4E0937C0027
:1043F00080917A00806480937A0080917A0086FDB3
:10440000FCCF8091780090917900B501A4014827F4
:104410004F70552766277727440F551F440F551FA8
:10442000A1E0B0E0AC0FBD1F4A0F5B1FDA014D9158
:104430005D916D917C91F4E0B694A79497948794E4
:10444000FA95D1F7482559256A257B25A4E095954D
:104450008795AA95E1F78F709927092E000CAA0B72
:10446000BB0B84279527A627B7278F709927AA27E4
:10447000BB27880F991F880F991FA1E0B0E0AC0FF0
:10448000BD1F8A0F9B1FDC018D909D90AD90BC904D
:1044900014E076956795579547951A95D1F7842638
:1044A0009526A626B72680949094A094B094215087
:1044B000310909F09BCF89288A288B2811F00E94A6
:1044C000062980910504909106048130910509F434
:1044D000D8C008F4D9C0029709F4DBC05E01BAE085
:1044E000AB0EB11C4E01EDE08E0E911CCC24C3949A
:1044F000D12C92E0292E312C87E094E00E94C30356
:10450000892B09F47DC582E0F82E87E094E00E94B3
:10451000C303181619060CF073C587E094E00E94D7
:10452000A1038A3009F4B8C08D3079F3E091A90372
:10453000E13358F791E09E0F9093A903F0E0E9581A
:10454000FC4F8083E2CF9E3040F42850310981E057
:1045500001C0880F2A95EAF775CE2E503109F7CFA2
:1045600021E030E0309306042093050487E5809332
:10457000AA0383E58093AB0380E58093AC0382E5D7
:104580008093AD0380E28093AE0384E58093AF0314
:1045900088E58093B0031092B10382E090E090939D
:1045A000D3038093D20381E48093D4038093D50313
:1045B00090E39093D6038093D7038093D80380939E
:1045C000D9031092DA033093DC032093DB0380934A
:1045D000DD038093DE039093DF039093E00310925A
:1045E000E1031092E3031092E20387E18093E40376
:1045F000E5EEF3E0119263E0E53FF607D9F781E0DD
:104600008093EA038093EB0380EE91E0A0E0B0E0BA
:104610008093F5039093F603A093F703B093F80308
:104620001092F9038AEC8093FA038AE98093FB03E2
:104630008BE38093FC031092FD031092FE03109213
:10464000FF03109200048DEF91E00E94E30C78CEFE
:1046500061E085E00E94D90461E086E00E94D9040F
:1046600061E087E00E94D90460E085E00E948D044B
:1046700060E086E00E948D0460E087E00E948D0487
:104680007FCE0E94C31C2ACF109269030E94FF199B
:1046900025CF0E94ED1722CFE091A903F0E0E95861
:1046A000FC4F1082809177038B3509F099C280917D
:1046B0007B038D3509F094C280917803833409F02F
:1046C00047C0809179038334D9F480917A038D3483
:1046D000B9F480917D03833509F085C280917F0311
:1046E000833511F40E94C31C80917F03873511F438
:1046F0000E94FF1980917F038E3411F40E94ED1700
:1047000080917903833579F480917A03853459F463
:1047100080917D03833539F480E00E94C51D88E8CF
:1047200093E00E94E30C80917903833589F48091B2
:104730007A038C3469F480917D03833549F4809148
:104740007F03813409F053C2109276030E943E1613
:10475000809178038F3409F0A1C08091790384356A
:1047600099F580917A03803579F580917D038335C1
:1047700009F04FC280917F038983809180038A83EF
:10478000809181038B83809182038C83809183034A
:104790008D831E82BE016F5F7F4FCE018F5B9F4F67
:1047A0000E948E0FCE018F5B9F4F0E942C0C209396
:1047B000F5033093F6034093F7035093F803CE01CB
:1047C0008F5B9F4F0E949F0F80917903833591F4F7
:1047D00080917A038D3471F480917D03833509F0E3
:1047E00074C280917F03833509F060C2D092D303F5
:1047F000C092D20380917903823421F580917A03AB
:104800008434B1F580917D0305EE13E0412C512CE9
:104810003201833509F073C280917F0389838091CF
:1048200080038A831B821C82CE0101960E945E292E
:10483000FC01E655FC4F91E080918203853409F03C
:1048400090E093AF809179038C3491F480917A0356
:10485000833471F480917D03833509F07EC28091A9
:104860007F03873409F071C2D092DC03C092DB036E
:1048700080917903803591F480917A03873571F4C2
:1048800080917D03833509F082C280917F038E344D
:1048900009F075C21092E3031092E203809178034D
:1048A000843409F0BBC080917903833419F5809179
:1048B0007A038335F9F480917D03833509F079C259
:1048C00080917F038093D403809180038093D503EC
:1048D000809181038093D603809182038093D703D4
:1048E000809183038093D803809184038093D903BC
:1048F0001092DA03809179038C34D9F480917A0391
:104900008433B9F480917D03833509F05BC28091D3
:104910007F038093DD03809180038093DE03809189
:1049200081038093DF03809182038093E0031092E0
:10493000E103809179038E34A9F480917A038D3458
:1049400089F480917D03833509F045C2AFE7B3E078
:10495000EAEAF3E08D91819323E0E13DF207D1F79C
:104960001092D103809179038035B9F480917A0354
:10497000843499F480917D03833509F035C28091A8
:104980007F038983809180038A831B821C82CE01EE
:1049900001960E945E298093E40380917903873415
:1049A000E9F580917A038634C9F580917D038335DA
:1049B00009F029C2AFE7B3E0FE0131968D918193F2
:1049C0008E169F06D9F71D86BE016F5F7F4FCE0101
:1049D0008F5B9F4F0E948E0FCE018F5B9F4F0E9477
:1049E0002C0C2093F9033093FA034093FB0350936C
:1049F000FC036093FD037093FE038093FF03909389
:104A00000004CE018F5B9F4F0E949F0F8091050491
:104A100090910604019711F40E94C31C80917803C1
:104A2000863409F0DDC0809179038035B9F4809136
:104A30007A038E3499F480917D03873479F48BE383
:104A400093E00E9452040E94850E4AE064EF73E0F6
:104A500080E090E00E94020D0E94DF0C80917903BB
:104A60008834C9F480917A038635A9F480917D0356
:104A7000833509F0EEC180917F03898380918003A3
:104A80008A83809181038B831C82CE0101960E94D0
:104A90005E2980936C03809179038834C9F48091F6
:104AA0007A038235A9F480917D03833509F0E6C14C
:104AB00080917F038983809180038A838091810321
:104AC0008B831C82CE0101960E945E2980936D0328
:104AD00080917903833579F480917A03863559F48E
:104AE00080917D03873439F486E293E00E9452047A
:104AF00080E00E94680E80917903833579F480917B
:104B00007A03823559F480917D03873439F48FE13B
:104B100093E00E9452048AE50E94680E8091790316
:104B20008C34D1F480917A038035B1F480917D0387
:104B3000833509F0D9C180918103898380918203F3
:104B40008A831B8280917F03823409F4BFC10CF0F9
:104B5000AAC1813409F4B3C180917903823569F522
:104B600080917A03863449F580917D03833509F07D
:104B700028C2AFE7B3E0FE0131968D918193EA152B
:104B8000FB05D9F71A86BE016F5F7F4FCE018F5BA1
:104B90009F4F0E948E0FCE018F5B9F4F0E942C0C67
:104BA00020936E0330936F0340937003509371030F
:104BB000CE018F5B9F4F0E949F0F809179038335B9
:104BC00079F480917A03853459F480917D0383359B
:104BD00039F481E00E94C51D8AEB92E00E94E30C4B
:104BE0001092A90392CC81E00E94061589CD8234EF
:104BF00021F481E080937603A9CD833419F4F092F7
:104C00007603A4CD843409F0A1CDF3E0F0937603CC
:104C10009DCD81E893E00E9452048091F50390912C
:104C2000F603A091F703B091F80380319742A105F4
:104C3000B10510F40E94850E8091F5039091F60362
:104C4000A091F703B091F803883E9340A105B10508
:104C500010F40E94850E8091F5039091F603A091C7
:104C6000F703B091F80384369105A105B10510F45E
:104C70000E94850E8091F5039091F603A091F703B1
:104C8000B091F8030A97A105B10510F40E94850EB2
:104C90006091F5037091F6038091F7039091F8030A
:104CA0004AE00E94020D0E94DF0C8ECD873529F468
:104CB0001092D3031092D2039DCD8E3409F09ACD79
:104CC0003092D3032092D20395CD8AE793E00E94DD
:104CD00052048091D2039091D3038130910561F009
:104CE00040F0029709F086CD81E392E00E94790EB0
:104CF00081CD83E392E0FACF85E392E0F7CF83E7BB
:104D000093E00E9452047AE04716510414F40E9482
:104D1000850EC301B2010E94460DD8018D918D010F
:104D2000882381F086E492E00E94790EBFEF4B1A4F
:104D30005B0A6B0A7B0AE0E14E16510461047104C0
:104D4000F1F680CD89E492E0EFCF8D3409F090CD7B
:104D50001092DC031092DB038BCD8CE693E00E9473
:104D600052048091DB039091DC03019729F48CE4D9
:104D700092E00E94790E7CCD8EE492E0FACF8134ED
:104D800009F08CCDD092E303C092E20387CD85E693
:104D900093E00E9452048091E2039091E303892BF7
:104DA00029F481E392E00E94790E78CD87E392E0C6
:104DB000FACF8EE593E00E94520484ED93E00E94C6
:104DC000790E98CD87E593E00E9452048DED93E033
:104DD0000E94790EAECD80E593E00E9452048AEAEB
:104DE00093E00E94790EBECD89E493E00E945204C4
:104DF0008091E4038A3010F40E94850E8091E403D0
:104E00000E94680ECACD82E493E00E945204009191
:104E1000F9031091FA032091FB033091FC034091B8
:104E2000FD035091FE036091FF0370910004EE2496
:104E3000E394CE018F5B9F4F0E94BB13CE018F5B2B
:104E40009F4F0E94EF0CCE018F5B9F4F0E949F0FE0
:104E5000E5CD84E393E00E94520480916C03843694
:104E600010F40E94850E80916C038A3010F40E9429
:104E7000850E80916C030E94680E0DCE8DE293E04A
:104E80000E94520480916D03843610F40E94850EB6
:104E900080916D038A3010F40E94850E80916D031D
:104EA0000E94680E15CE8334C1F0843409F054CECC
:104EB000CE0101960E945E29809375034DCECE01EE
:104EC00001960E945E298093720346CECE01019620
:104ED0000E945E29809373033FCECE0101960E940B
:104EE0005E298093740338CE80916C03813081F504
:104EF00080916D038A3060F1809172038A3061F095
:104F0000809173038A3041F0809174038A3021F0DC
:104F1000809175038A3041F484E193E00E94E30CB0
:104F200089E093E00E94E30C80917203863061F087
:104F300080917303863041F080917403863021F0B4
:104F400080917503863021F48EEF92E00E94E30C8D
:104F500085EF92E00E945204809172038A3010F42F
:104F60000E94850E809172030E94680E8CEE92E082
:104F70000E945204809173038A3010F40E94850EBF
:104F8000809173030E94680E83EE92E00E945204A7
:104F9000809174038A3010F40E94850E809174030E
:104FA0000E94680E8AED92E00E945204809175037F
:104FB0008A3010F40E94850E809175030E94680E5D
:104FC000CBCD83ED92E00E94520440916E0350914C
:104FD0006F036091700370917103EE24E3948A0172
:104FE0009B0140E050E060E070E0CE018F5B9F4F9E
:104FF0000E94BB13CE018F5B9F4F0E94EF0CD8CD58
:105000008091050490910604892B11F40E94FF19E8
:105010000E944609882309F468C0CE01895B9F4F2E
:105020000E94AE0C8FE1FE01E95BFF4FA3ECB4E000
:1050300001900D928A95E1F783E00E940615109287
:10504000040410920304809101049091020483707F
:105050009927892B09F040C00E94890E8AE00E949E
:10506000061581E00E9406158091E10483FF3BC094
:1050700082FF39C084E00E9406158091DB03909185
:10508000DC03019731F56091C7047091C8048091E9
:10509000C9049091CA040E94972925E93FEB46ED87
:1050A00053E30E94F6292B013C016091C3047091E7
:1050B000C4048091C5049091C6040E94972925E9F3
:1050C0003FEB46ED53E30E94F629A30192010E94B3
:1050D0009C0B82E00E94061568EC70E080E090E096
:1050E0000E94720D95CF85E0F5CF809103049091D9
:1050F0000404019681366AEE960788F490930404BE
:105100008093030480E090E0892B09F4F5C90E94A4
:10511000CF03882309F4EDC90E940000EAC9109268
:1051200004041092030482EA93E00E94E30C60ED11
:1051300077E080E090E00E94720DE4CF85E192E09C
:105140009093A5048093A4048091670390916803D1
:10515000845A944071F4E091B704F091B8049081BE
:105160008091B904809589238083109268031092FE
:10517000670308958F929F92AF92BF92CF92DF9272
:10518000EF92FF92CF93DF93EC01688179818A815E
:105190009B81611571058105910521F464E279ED2A
:1051A0008BE597E02DE133EF41E050E00E94FC2ACF
:1051B00049015A019B01AC01A7EAB1E40E941B2BF3
:1051C0006B017C01ACEEB4EFA50194010E94292B88
:1051D000C60ED71EE81EF91EF7FE06C081E0C81AEB
:1051E000D108E10880E8F80AC882D982EA82FB8205
:1051F000C701B6019F77DF91CF91FF90EF90DF90CD
:10520000CF90BF90AF909F908F9008958F929F9274
:10521000AF92BF92CF92DF92EF92FF926091000126
:105220007091010180910201909103016115710556
:105230008105910521F464E279ED8BE597E02DE19C
:1052400033EF41E050E00E94FC2A49015A019B01E2
:10525000AC01A7EAB1E40E941B2B6B017C01ACEE10
:10526000B4EFA50194010E94292BC60ED71EE81E9B
:10527000F91EF7FE06C081E0C81AD108E10880E8EF
:10528000F80AC0920001D0920101E0920201F0926E
:105290000301C701B6019F77FF90EF90DF90CF9099
:1052A000BF90AF909F908F9008956093000170938E
:1052B000010180930201909303010895FC01882766
:1052C0009927E89421912032E9F3293010F02E300B
:1052D000C8F32B3241F02D3239F4689404C00E9497
:1052E0008529820F911D219120532A30C0F31EF48D
:1052F000909581959F4F089591110C948D2980323E
:1053000019F089508550C8F708957AE0979F902D3D
:10531000879F802D910D112408959927882708953E
:105320000E94D22908F481E00895E89409C097FB0F
:105330003EF490958095709561957F4F8F4F9F4F6C
:105340009923A9F0F92F96E9BB279395F6958795B0
:1053500077956795B795F111F8CFFAF4BB0F11F473
:1053600060FF1BC06F5F7F4F8F4F9F4F16C088231A
:1053700011F096E911C0772321F09EE8872F762F50
:1053800005C0662371F096E8862F70E060E02AF091
:105390009A95660F771F881FDAF7880F969587957D
:1053A00097F90895990F0008550FAA0BE0E8FEEF52
:1053B00016161706E807F907C0F012161306E407D9
:1053C000F50798F0621B730B840B950B39F40A26D2
:1053D00061F0232B242B252B21F408950A2609F4B0
:1053E000A140A6958FEF811D811D08950E94092A75
:1053F0000C947A2A0E946C2A38F00E94732A20F0BA
:10540000952311F00C94632A0C94692A11240C94AE
:10541000AE2A0E948B2A70F3959FC1F3950F50E03E
:10542000551F629FF001729FBB27F00DB11D639F56
:10543000AA27F00DB11DAA1F649F6627B00DA11DFC
:10544000661F829F2227B00DA11D621F739FB00DA2
:10545000A11D621F839FA00D611D221F749F332712
:10546000A00D611D231F849F600D211D822F762FAB
:105470006A2F11249F5750409AF0F1F088234AF088
:10548000EE0FFF1FBB1F661F771F881F91505040F4
:10549000A9F79E3F510580F00C94632A0C94AE2A24
:1054A0005F3FE4F3983ED4F3869577956795B7957B
:1054B000F795E7959F5FC1F7FE2B880F911D969595
:1054C000879597F9089597F99F6780E870E060E005
:1054D00008959FEF80EC089500240A94161617068D
:1054E00018060906089500240A94121613061406D5
:1054F00005060895092E0394000C11F4882352F038
:10550000BB0F40F4BF2B11F460FF04C06F5F7F4FEF
:105510008F4F9F4F089557FD9058440F551F59F0D6
:105520005F3F71F04795880F97FB991F61F09F3F90
:1055300079F087950895121613061406551FF2CFB9
:105540004695F1DF08C0161617061806991FF1CF09
:1055500086957105610508940895E894BB27662730
:105560007727CB0197F90895F999FECF92BD81BDB8
:10557000F89A992780B50895262FF999FECF1FBA7A
:1055800092BD81BD20BD0FB6F894FA9AF99A0FBE6C
:1055900001960895DB018F939F930E941B2BBF916F
:1055A000AF91A29F800D911DA39F900DB29F900D72
:1055B00011240895A1E21A2EAA1BBB1BFD010DC0E8
:1055C000AA1FBB1FEE1FFF1FA217B307E407F507B3
:1055D00020F0A21BB30BE40BF50B661F771F881F8F
:1055E000991F1A9469F760957095809590959B0125
:1055F000AC01BD01CF010895052E97FB1EF4009468
:105600000E94132B57FD07D00E94DA2A07FC03D013
:105610004EF40C94132B50954095309521953F4FA7
:105620004F4F5F4F089590958095709561957F4F8E
:105630008F4F9F4F08950E94652BA59F900DB49F9B
:10564000900DA49F800D911D11240895B7FF0C9417
:105650001B2B0E941B2B821B930B08952F923F92B2
:105660004F925F926F927F928F929F92AF92BF9272
:10567000CF92DF92EF92FF920F931F93CF93DF931E
:10568000CDB7DEB7CA1BDB0B0FB6F894DEBF0FBE7B
:10569000CDBF09942A88398848885F846E847D84C8
:1056A0008C849B84AA84B984C884DF80EE80FD80CA
:1056B0000C811B81AA81B981CE0FD11D0FB6F89440
:1056C000DEBF0FBECDBFED010895A29FB001B39F15
:1056D000C001A39F700D811D1124911DB29F700DFB
:1056E000811D1124911D08955058BB27AA270E949F
:1056F0008C2B0C947A2A0E946C2A38F00E94732A10
:1057000020F039F49F3F19F426F40C94692A0EF422
:10571000E095E7FB0C94632AE92F0E948B2A58F34B
:10572000BA17620773078407950720F079F4A6F586
:105730000C94AD2A0EF4E0950B2EBA2FA02D0B0180
:10574000B90190010C01CA01A0011124FF27591BC6
:1057500099F0593F50F4503E68F11A16F040A22FCC
:10576000232F342F4427585FF3CF4695379527953D
:10577000A795F0405395C9F77EF41F16BA0B620B3C
:10578000730B840BBAF09150A1F0FF0FBB1F661F83
:10579000771F881FC2F70EC0BA0F621F731F841FC6
:1057A00048F4879577956795B795F7959E3F08F0EC
:1057B000B0CF9395880F08F09927EE0F97958795AE
:1057C00008950E94F52B0C947A2A0E94732A58F0AF
:1057D0000E946C2A40F029F45F3F29F00C94632A60
:1057E00051110C94AE2A0C94692A0E948B2A68F3FA
:1057F0009923B1F3552391F3951B550BBB27AA278A
:1058000062177307840738F09F5F5F4F220F331FC3
:10581000441FAA1FA9F335D00E2E3AF0E0E832D08B
:1058200091505040E695001CCAF72BD0FE2F29D08E
:10583000660F771F881FBB1F261737074807AB0760
:10584000B0E809F0BB0B802DBF01FF2793585F4FD5
:105850003AF09E3F510578F00C94632A0C94AE2ADE
:105860005F3FE4F3983ED4F3869577956795B795B7
:10587000F7959F5FC9F7880F911D9695879597F9C2
:105880000895E1E0660F771F881FBB1F621773073B
:105890008407BA0720F0621B730B840BBA0BEE1F50
:1058A00088F7E09508950E945A2C6894B1110C94E1
:1058B000AE2A08950E94932A88F09F5798F0B92F36
:1058C0009927B751B0F0E1F0660F771F881F991F35
:1058D0001AF0BA95C9F714C0B13091F00E94AD2A00
:1058E000B1E008950C94AD2A672F782F8827B85F10
:1058F00039F0B93FCCF3869577956795B395D9F78D
:105900003EF490958095709561957F4F8F4F9F4F96
:105910000895E894F92F96EBFF2381F012161306F1
:105920001406440B9395F69587957795679557954B
:105930004040FF23B9F71BC099270895882351F4ED
:105940009850D2F7872B762F652F542F432F322F65
:1059500020E0B1F3121613061406440B88233AF024
:105960009A95440F551F661F771F881FCAF7552346
:105970004AF4440F551F11F460FF04C06F5F7F4F5E
:105980008F4F9F4F880F9695879597F9089597FBAE
:10599000072E16F4009407D077FD09D00E94F42D4D
:1059A00007FC05D03EF4909581959F4F0895709522
:1059B00061957F4F0895EE0FFF1F0590F491E02D44
:1059C0000994DF93CF931F930F939A9DF02D219FFE
:1059D000F00D8B9DF00D8A9DE02DF10D039FF00DD4
:1059E000029FE00DF11D4E9DE00DF11D5E9DF00D3D
:1059F0004F9DF00D7F936F93BF92AF925F934F9344
:105A0000D5010E94652B8B01AC01D7010E94652B4B
:105A1000EB01E80FF91FD6010E94302D2F913F9125
:105A2000D6010E94652BC60FD71FE81FF91FAF9143
:105A3000BF910E94302D2F913F910E94652BC60F80
:105A4000D71FE81FF91FD6010E94652BE60FF71F2D
:105A50009801BE01CF010F911F91CF91DF91089561
:105A60000E94652B460F571FC81FD91F08F4319697
:105A7000089597FB57FF0C94492D9F938F930E9495
:105A8000492D6E1B7F0BAF91BF918A0B9B0B089525
:105A9000E894DF93CF93FC01DB010E94652B7F9399
:105AA0006F93E9019A01AC01BF93AF933F932F939A
:105AB000DF010E94652B26F46C1B7D0B820B930B80
:105AC0009E01EB01FC010E94302DAF91BF912F91FF
:105AD0003F910E94302DBE01CF01F9012F913F91DE
